1 San Andres de GPAGO                30654925492PROVEEDOR 2307070907230707017193010094610TR10770B  0
20140057103710153058029000150000000000000000834727323874889Gisela Noelia Grattone                  0
20110458920045800095076003373603100000000000305430624227677Estacion de Servicios                   0
20110458920045800341711000054220000000000000482420259608385BELTRAN GASTON ARIEL                    0
20140320403719302373707000600000000000000000012627268684048Bonaparte Carolina                      0
20140320401719302104561005039492600000000000698830666285367LANZONI F. Y ROSSI N.                   0
20140320401719302104943012427607600000000000019120132996483Gastaldi Enrique G.                     0
300000800216449233                                                                                 0
