1SEREM SA        TRS0C001            30612961146AGUINALDOS2307060917230707014200086154830TRS0C0010 0
20140323503420055120347000800273300000000000006727221498297CANDIDA ETELVINA LHOMY                  0
20140323503420055121234000380141500000000000012427165724602PAULINA GRACIELA MAZZO                  0
20140323503420055116665000138444400000000000029427136162077ELISABET ADELA AMELOTT                  0
20140323503420055119763000556179100000000000030527920395150MARIA ELIZABETH GONZAL                  0
20140323503420055119848000244928200000000000032527162267812MARIANA HERNANDO                        0
20140323503420055123520000876286200000000000301920176601826JUAN JOSE RODRIGUEZ                     0
20140323503420055121661000809943500000000000304220172964711CLAUDIO PEDRO MORON                     0
20140323503420055119176000456714300000000000307223165863089EDUARDO FABIAN FERNAND                  0
20140323503420055123605000906110900000000000307620227461234FERNANDO JAVIER ROLDAN                  0
20140323503420055119503000408865800000000000309020226308319OSCAR SABINO GODOY                      0
20140323503420055124172000787730500000000000404620204556602ELISEO SARAVIA CABALLE                  0
20140323503420055122985000587624800000000000404920177970809FERNANDO JUAN PIZARRO                   0
20140323503420055120859000878369700000000000405820243268398FACUNDO GUILLERMO MARM                  0
20140323503420055123872000192916700000000000407020261501415GUALBERTO LEONARDO ROM                  0
20140323503420055117477000423666600000000000408120238387931DANIEL RICARDO CACERES                  0
20140323503420055117392000508415600000000000408323243391059ALBERTO MARTIN BIANCHI                  0
20140323503420055118609000702516300000000000409320262694349MAXIMILIANO ADRIAN DUA                  0
20140323503420055119688000679592400000000000503520177966380FABIO DANIEL GONZALEZ                   0
20140323503420055118364000460747700000000000504127264728520CARLA MARISOL DEL RIO                   0
20140323503420055121319000328686800000000000504320348304845MATIAS NICOLAS MEDINA                   0
20140323503420055119251000256957700000000000710820239703322MARTIN DANIEL FERREYRO                  0
20140323503420055121906000664696200000000000712320245434937SERGIO GUSTAVO NAVARRE                  0
20140323503420055131037000558668800000000000000227184171401SILVINA DOLORES ROMEO                   0
20140323503420055130577000646399600000000000030220127179957DANIEL NORBERTO DO CAR                  0
20140323503420055130140000453877000000000000502820181395622PEDRO GUILLERMO BADOZA                  0
20140323503420055322309000171509000000000000309420278509010CLAUDIO ALEJANDRO CHAR                  0
20140323503420057158908000737907200000000000018327204636341MARIA FERNANDA DEMATTE                  0
20140323503420058007223000202154000000000000504627205554314SANDRA MERCEDES MONCAD                  0
20140323503420059597806000464639300000000000504727345107083TAMARA LORELEY RUIZ DI                  0
20140472603610651185901000183566100000000000411220252401122LEONEL ALFREDO TORTOSA                  0
20140323503420055130812000781912700000000000007320181128977PABLO NESTOR OLMEDO                     0
20140323503420056348063000424340100000000000410523293032009JUAN MANUEL GALLEGOS                    0
300003400166747820                                                                                 0
