0140323503420055120347000008002733CONCEP1                                           CUO                                                                                                                                                                                          
0140323503420055121234000003801415CONCEP1                                           CUO                                                                                                                                                                                          
0140323503420055116665000001384444CONCEP1                                           CUO                                                                                                                                                                                          
0140323503420055119763000005561791CONCEP1                                           CUO                                                                                                                                                                                          
0140323503420055119848000002449282CONCEP1                                           CUO                                                                                                                                                                                          
0140323503420055123520000008762862CONCEP1                                           CUO                                                                                                                                                                                          
0140323503420055121661000008099435CONCEP1                                           CUO                                                                                                                                                                                          
0140323503420055119176000004567143CONCEP1                                           CUO                                                                                                                                                                                          
0140323503420055123605000009061109CONCEP1                                           CUO                                                                                                                                                                                          
0140323503420055119503000004088658CONCEP1                                           CUO                                                                                                                                                                                          
0140323503420055124172000007877305CONCEP1                                           CUO                                                                                                                                                                                          
0140323503420055122985000005876248CONCEP1                                           CUO                                                                                                                                                                                          
0140323503420055120859000008783697CONCEP1                                           CUO                                                                                                                                                                                          
0140323503420055123872000001929167CONCEP1                                           CUO                                                                                                                                                                                          
0140323503420055117477000004236666CONCEP1                                           CUO                                                                                                                                                                                          
0140323503420055117392000005084156CONCEP1                                           CUO                                                                                                                                                                                          
0140323503420055118609000007025163CONCEP1                                           CUO                                                                                                                                                                                          
0140323503420055119688000006795924CONCEP1                                           CUO                                                                                                                                                                                          
0140323503420055118364000004607477CONCEP1                                           CUO                                                                                                                                                                                          
0140323503420055121319000003286868CONCEP1                                           CUO                                                                                                                                                                                          
0140323503420055119251000002569577CONCEP1                                           CUO                                                                                                                                                                                          
0140323503420055121906000006646962CONCEP1                                           CUO                                                                                                                                                                                          
0140323503420055131037000005586688CONCEP1                                           CUO                                                                                                                                                                                          
0140323503420055130577000006463996CONCEP1                                           CUO                                                                                                                                                                                          
0140323503420055130140000004538770CONCEP1                                           CUO                                                                                                                                                                                          
0140323503420055322309000001715090CONCEP1                                           CUO                                                                                                                                                                                          
0140323503420057158908000007379072CONCEP1                                           CUO                                                                                                                                                                                          
0140323503420058007223000002021540CONCEP1                                           CUO                                                                                                                                                                                          
0140323503420059597806000004646393CONCEP1                                           CUO                                                                                                                                                                                          
0140472603610651185901000001835661CONCEP1                                           CUO                                                                                                                                                                                          
0140323503420055130812000007819127CONCEP1                                           CUO                                                                                                                                                                                          
0140323503420056348063000004243401CONCEP1                                           CUO                                                                                                                                                                                          
0003500000000166747820                                                                                                                                                                                                                                                           
