0140057103710153058029000001500000PEPE                                              MONO                                                                                                                                                                                          
0110458920045800095076000033736031PEPE                                              MONO                                                                                                                                                                                          
0110458920045800341711000000542200PEPE                                              MONO                                                                                                                                                                                          
0140320403719302373707000006000000PEPE                                              MONO                                                                                                                                                                                          
0140320401719302104561000050394926PEPE                                              MONO                                                                                                                                                                                          
0140320401719302104943000124276076PEPE                                              MONO                                                                                                                                                                                          
0000900000000216449233                                                                                                                                                                                                                                                           
