0140057103710153058029000001500000CONCEP2                                           VAR                                                                                                                                                                                          
0110458920045800095076000033736031CONCEP2                                           VAR                                                                                                                                                                                          
0110458920045800341711000000542200CONCEP2                                           VAR                                                                                                                                                                                          
0140320403719302373707000006000000CONCEP2                                           VAR                                                                                                                                                                                          
0140320401719302104561000050394926CONCEP2                                           VAR                                                                                                                                                                                          
0140320401719302104943000124276076CONCEP2                                           VAR                                                                                                                                                                                          
0000900000000216449233                                                                                                                                                                                                                                                           
