0140323503420055120347000008002733CONCEP2                                           FAC                                                                                                                                                                                          
0140323503420055121234000003801415CONCEP2                                           FAC                                                                                                                                                                                          
0140323503420055116665000001384444CONCEP2                                           FAC                                                                                                                                                                                          
0140323503420055119763000005561791CONCEP2                                           FAC                                                                                                                                                                                          
0140323503420055119848000002449282CONCEP2                                           FAC                                                                                                                                                                                          
0140323503420055123520000008762862CONCEP2                                           FAC                                                                                                                                                                                          
0140323503420055121661000008099435CONCEP2                                           FAC                                                                                                                                                                                          
0140323503420055119176000004567143CONCEP2                                           FAC                                                                                                                                                                                          
0140323503420055123605000009061109CONCEP2                                           FAC                                                                                                                                                                                          
0140323503420055119503000004088658CONCEP2                                           FAC                                                                                                                                                                                          
0140323503420055124172000007877305CONCEP2                                           FAC                                                                                                                                                                                          
0140323503420055122985000005876248CONCEP2                                           FAC                                                                                                                                                                                          
0140323503420055120859000008783697CONCEP2                                           FAC                                                                                                                                                                                          
0140323503420055123872000001929167CONCEP2                                           FAC                                                                                                                                                                                          
0140323503420055117477000004236666CONCEP2                                           FAC                                                                                                                                                                                          
0140323503420055117392000005084156CONCEP2                                           FAC                                                                                                                                                                                          
0140323503420055118609000007025163CONCEP2                                           FAC                                                                                                                                                                                          
0140323503420055119688000006795924CONCEP2                                           FAC                                                                                                                                                                                          
0140323503420055118364000004607477CONCEP2                                           FAC                                                                                                                                                                                          
0140323503420055121319000003286868CONCEP2                                           FAC                                                                                                                                                                                          
0140323503420055119251000002569577CONCEP2                                           FAC                                                                                                                                                                                          
0140323503420055121906000006646962CONCEP2                                           FAC                                                                                                                                                                                          
0140323503420055131037000005586688CONCEP2                                           FAC                                                                                                                                                                                          
0140323503420055130577000006463996CONCEP2                                           FAC                                                                                                                                                                                          
0140323503420055130140000004538770CONCEP2                                           FAC                                                                                                                                                                                          
0140323503420055322309000001715090CONCEP2                                           FAC                                                                                                                                                                                          
0140323503420057158908000007379072CONCEP2                                           FAC                                                                                                                                                                                          
0140323503420058007223000002021540CONCEP2                                           FAC                                                                                                                                                                                          
0140323503420059597806000004646393CONCEP2                                           FAC                                                                                                                                                                                          
0140472603610651185901000001835661CONCEP2                                           FAC                                                                                                                                                                                          
0140323503420055130812000007819127CONCEP2                                           FAC                                                                                                                                                                                          
0140323503420056348063000004243401CONCEP2                                           FAC                                                                                                                                                                                          
0003500000000166747820                                                                                                                                                                                                                                                           
