0140057103710153058029000001500000CONCEP1                                           CUO                                                                                                                                                                                          
0110458920045800095076000033736031CONCEP1                                           CUO                                                                                                                                                                                          
0110458920045800341711000000542200CONCEP1                                           CUO                                                                                                                                                                                          
0140320403719302373707000006000000CONCEP1                                           CUO                                                                                                                                                                                          
0140320401719302104561000050394926CONCEP1                                           CUO                                                                                                                                                                                          
0140320401719302104943000124276076CONCEP1                                           CUO                                                                                                                                                                                          
0000900000000216449233                                                                                                                                                                                                                                                           
