0140057103710153058029000001500000JUAN                                              MONO                                                                                                                                                                                          
0110458920045800095076000033736031JUAN                                              MONO                                                                                                                                                                                          
0110458920045800341711000000542200JUAN                                              MONO                                                                                                                                                                                          
0140320403719302373707000006000000JUAN                                              MONO                                                                                                                                                                                          
0140320401719302104561000050394926JUAN                                              MONO                                                                                                                                                                                          
0140320401719302104943000124276076JUAN                                              MONO                                                                                                                                                                                          
0000900000000216449233                                                                                                                                                                                                                                                           
