HRNOVED-EMPLE9V776441240901B                                                                                                                                                                                                                                                                                                              
2036070000403VELAZQUE                 Emilio Ivan         M136070000Reconquista    00026        Chacabuco    67400212345670000000001644130071991PROV BS AS   Reconquista    00026    Chacabuco    67400200112345671000                                                                                          51124010100001000000000   
2023937587203SOLIS                    Jose Enrique        F123937587Reconquista    00026        Chacabuco    67400212345670000000002644112111974PROV BS AS   Reconquista    00026    Chacabuco    67400200112345671000                                                                                          51124010100001000000000   
2035232467203IBARRA                   Mauro Ezequiel      M135232467Reconquista    00026        Chacabuco    67400212345670000000003644109101990PROV BS AS   Reconquista    00026    Chacabuco    67400200112345671000                                                                                          51124010100001000000000   
2024452494003MOSTAJO                  Jorge Alberto       M124452494Reconquista    00026        Chacabuco    67400212345670000000004644103031972PROV BS AS   Reconquista    00026    Chacabuco    67400200112345671000                                                                                          51124010100001000000000   
2036243849803ESCOBAR                  Dionicio Dario      M136243849Reconquista    00026        Chacabuco    67400212345670000000005644112071991PROV BS AS   Reconquista    00026    Chacabuco    67400200112345671000                                                                                          51124010100001000000000   
2037759459303VILCHE                   Cesar Nicolas       M137759459Reconquista    00026        Chacabuco    67400212345670000000006644113041993PROV BS AS   Reconquista    00026    Chacabuco    67400200112345671000                                                                                          51124010100001000000000   
2041336177003GONZALEZ                 Facundo Jose Maria  M141336177Reconquista    00026        Chacabuco    67400212345670000000007644103121998PROV BS AS   Reconquista    00026    Chacabuco    67400200112345671000                                                                                          51124010100001000000000   
2033551112403HERRERA                  Gaston Ezequiel     M133551112Reconquista    00026        Chacabuco    67400212345670000000008644131101987PROV BS AS   Reconquista    00026    Chacabuco    67400200112345671000                                                                                          51124010100001000000000   
2029689650103HERRERA                  Leonardo Matias     M129689650Reconquista    00026        Chacabuco    67400212345670000000009644114091982PROV BS AS   Reconquista    00026    Chacabuco    67400200112345671000                                                                                          51124010100001000000000   
2739708987303CEJAS                    Yesica Alejandra    F139708987Reconquista    00026        Chacabuco    67400212345670000000010644109051996PROV BS AS   Reconquista    00026    Chacabuco    67400200112345671000                                                                                          51124010100001000000000   
2044784420703MOSCARELLI               Nicolas Ezequiel    M144784420Reconquista    00026        Chacabuco    67400212345670000000011644111042003PROV BS AS   Reconquista    00026    Chacabuco    67400200112345671000                                                                                          51124010100001000000000   
2039431797803SUAREZ                   Jonathan Tomas      M139431797Reconquista    00026        Chacabuco    67400212345670000000012644127021996PROV BS AS   Reconquista    00026    Chacabuco    67400200112345671000                                                                                          51124010100001000000000   
2034621575603ROLDAN                   Alejandro Jose      M134621575Reconquista    00026        Chacabuco    67400212345670000000013644117061989PROV BS AS   Reconquista    00026    Chacabuco    67400200112345671000                                                                                          51124010100001000000000   
2036324256203QUIROZ                   Carlos Daniel       M136324256Reconquista    00026        Chacabuco    67400212345670000000014644103021991PROV BS AS   Reconquista    00026    Chacabuco    67400200112345671000                                                                                          51124010100001000000000   
2039099877603FARIAS                   Leonardo Raul       M139099877Reconquista    00026        Chacabuco    67400212345670000000015644108091995PROV BS AS   Reconquista    00026    Chacabuco    67400200112345671000                                                                                          51124010100001000000000   
2344534273403DIAZ                     Ludmila Belen       F144534273Reconquista    00026        Chacabuco    67400212345670000000016644104112002PROV BS AS   Reconquista    00026    Chacabuco    67400200112345671000                                                                                          51124010100001000000000   
TRNOVED-EMPLE0000001700000001700000                                                                                                                                                                                                                                                                                                       

