HRNOVED-EMPLE9V776441240902B                                                                                                                                                                                                                                                                                                              
2036070000403VELAZQUE                 Emilio Ivan         M136070000Reconquista    00026        Chacabuco    67400212345670000000001644130071991PROV BS AS   Reconquista    00026    Chacabuco    67400200112345671000                                                                                          51124010100001000000000   
2023937587203SOLIS                    Jose Enrique        F123937587Reconquista    00026        Chacabuco    67400212345670000000002644112111974PROV BS AS   Reconquista    00026    Chacabuco    67400200112345671000                                                                                          51124010100001000000000   
2035232467203IBARRA                   Mauro Ezequiel      M135232467Reconquista    00026        Chacabuco    67400212345670000000003644109101990PROV BS AS   Reconquista    00026    Chacabuco    67400200112345671000                                                                                          51124010100001000000000   
2024452494003MOSTAJO                  Jorge Alberto       M124452494Reconquista    00026        Chacabuco    67400212345670000000004644103031972PROV BS AS   Reconquista    00026    Chacabuco    67400200112345671000                                                                                          51124010100001000000000   
2036243849803ESCOBAR                  Dionicio Dario      M136243849Reconquista    00026        Chacabuco    67400212345670000000005644112071991PROV BS AS   Reconquista    00026    Chacabuco    67400200112345671000                                                                                          51124010100001000000000   
2037759459303VILCHE                   Cesar Nicolas       M137759459Reconquista    00026        Chacabuco    67400212345670000000006644113041993PROV BS AS   Reconquista    00026    Chacabuco    67400200112345671000                                                                                          51124010100001000000000   
2041336177003GONZALEZ                 Facundo Jose Maria  M141336177Reconquista    00026        Chacabuco    67400212345670000000007644103121998PROV BS AS   Reconquista    00026    Chacabuco    67400200112345671000                                                                                          51124010100001000000000   
2033551112403HERRERA                  Gaston Ezequiel     M133551112Reconquista    00026        Chacabuco    67400212345670000000008644131101987PROV BS AS   Reconquista    00026    Chacabuco    67400200112345671000                                                                                          51124010100001000000000   
2029689650103HERRERA                  Leonardo Matias     M129689650Reconquista    00026        Chacabuco    67400212345670000000009644114091982PROV BS AS   Reconquista    00026    Chacabuco    67400200112345671000                                                                                          51124010100001000000000   
2739708987303CEJAS                    Yesica Alejandra    F139708987Reconquista    00026        Chacabuco    67400212345670000000010644109051996PROV BS AS   Reconquista    00026    Chacabuco    67400200112345671000                                                                                          51124010100001000000000   
2044784420703MOSCARELLI               Nicolas Ezequiel    M144784420Reconquista    00026        Chacabuco    67400212345670000000011644111042003PROV BS AS   Reconquista    00026    Chacabuco    67400200112345671000                                                                                          51124010100001000000000   
2039431797803SUAREZ                   Jonathan Tomas      M139431797Reconquista    00026        Chacabuco    67400212345670000000012644127021996PROV BS AS   Reconquista    00026    Chacabuco    67400200112345671000                                                                                          51124010100001000000000   
2034621575603ROLDAN                   Alejandro Jose      M134621575Reconquista    00026        Chacabuco    67400212345670000000013644117061989PROV BS AS   Reconquista    00026    Chacabuco    67400200112345671000                                                                                          51124010100001000000000   
2036324256203QUIROZ                   Carlos Daniel       M136324256Reconquista    00026        Chacabuco    67400212345670000000014644103021991PROV BS AS   Reconquista    00026    Chacabuco    67400200112345671000                                                                                          51124010100001000000000   
2039099877603FARIAS                   Leonardo Raul       M139099877Reconquista    00026        Chacabuco    67400212345670000000015644108091995PROV BS AS   Reconquista    00026    Chacabuco    67400200112345671000                                                                                          51124010100001000000000   
2344534273403DIAZ                     Ludmila Belen       F144534273Reconquista    00026        Chacabuco    67400212345670000000016644104112002PROV BS AS   Reconquista    00026    Chacabuco    67400200112345671000                                                                                          51124010100001000000000   
2036070000403VELAZQUE                 Emilio Ivan         M136070000Reconquista    00026        Chacabuco    67400212345670000000017644130071991PROV BS AS   Reconquista    00026    Chacabuco    67400200112345671000                                                                                          51124010100001000000000   
2023937587203SOLIS                    Jose Enrique        F123937587Reconquista    00026        Chacabuco    67400212345670000000018644112111974PROV BS AS   Reconquista    00026    Chacabuco    67400200112345671000                                                                                          51124010100001000000000   
2035232467203IBARRA                   Mauro Ezequiel      M135232467Reconquista    00026        Chacabuco    67400212345670000000019644109101990PROV BS AS   Reconquista    00026    Chacabuco    67400200112345671000                                                                                          51124010100001000000000   
2024452494003MOSTAJO                  Jorge Alberto       M124452494Reconquista    00026        Chacabuco    67400212345670000000020644103031972PROV BS AS   Reconquista    00026    Chacabuco    67400200112345671000                                                                                          51124010100001000000000   
2036243849803ESCOBAR                  Dionicio Dario      M136243849Reconquista    00026        Chacabuco    67400212345670000000021644112071991PROV BS AS   Reconquista    00026    Chacabuco    67400200112345671000                                                                                          51124010100001000000000   
2037759459303VILCHE                   Cesar Nicolas       M137759459Reconquista    00026        Chacabuco    67400212345670000000022644113041993PROV BS AS   Reconquista    00026    Chacabuco    67400200112345671000                                                                                          51124010100001000000000   
2041336177003GONZALEZ                 Facundo Jose Maria  M141336177Reconquista    00026        Chacabuco    67400212345670000000023644103121998PROV BS AS   Reconquista    00026    Chacabuco    67400200112345671000                                                                                          51124010100001000000000   
2033551112403HERRERA                  Gaston Ezequiel     M133551112Reconquista    00026        Chacabuco    67400212345670000000024644131101987PROV BS AS   Reconquista    00026    Chacabuco    67400200112345671000                                                                                          51124010100001000000000   
2029689650103HERRERA                  Leonardo Matias     M129689650Reconquista    00026        Chacabuco    67400212345670000000025644114091982PROV BS AS   Reconquista    00026    Chacabuco    67400200112345671000                                                                                          51124010100001000000000   
2739708987303CEJAS                    Yesica Alejandra    F139708987Reconquista    00026        Chacabuco    67400212345670000000026644109051996PROV BS AS   Reconquista    00026    Chacabuco    67400200112345671000                                                                                          51124010100001000000000   
2044784420703MOSCARELLI               Nicolas Ezequiel    M144784420Reconquista    00026        Chacabuco    67400212345670000000027644111042003PROV BS AS   Reconquista    00026    Chacabuco    67400200112345671000                                                                                          51124010100001000000000   
2039431797803SUAREZ                   Jonathan Tomas      M139431797Reconquista    00026        Chacabuco    67400212345670000000028644127021996PROV BS AS   Reconquista    00026    Chacabuco    67400200112345671000                                                                                          51124010100001000000000   
2034621575603ROLDAN                   Alejandro Jose      M134621575Reconquista    00026        Chacabuco    67400212345670000000029644117061989PROV BS AS   Reconquista    00026    Chacabuco    67400200112345671000                                                                                          51124010100001000000000   
2036324256203QUIROZ                   Carlos Daniel       M136324256Reconquista    00026        Chacabuco    67400212345670000000030644103021991PROV BS AS   Reconquista    00026    Chacabuco    67400200112345671000                                                                                          51124010100001000000000   
2039099877603FARIAS                   Leonardo Raul       M139099877Reconquista    00026        Chacabuco    67400212345670000000031644108091995PROV BS AS   Reconquista    00026    Chacabuco    67400200112345671000                                                                                          51124010100001000000000   
2344534273403DIAZ                     Ludmila Belen       F144534273Reconquista    00026        Chacabuco    67400212345670000000032644104112002PROV BS AS   Reconquista    00026    Chacabuco    67400200112345671000                                                                                          51124010100001000000000   
2036070000403VELAZQUE                 Emilio Ivan         M136070000Reconquista    00026        Chacabuco    67400212345670000000033644130071991PROV BS AS   Reconquista    00026    Chacabuco    67400200112345671000                                                                                          51124010100001000000000   
2023937587203SOLIS                    Jose Enrique        F123937587Reconquista    00026        Chacabuco    67400212345670000000034644112111974PROV BS AS   Reconquista    00026    Chacabuco    67400200112345671000                                                                                          51124010100001000000000   
2035232467203IBARRA                   Mauro Ezequiel      M135232467Reconquista    00026        Chacabuco    67400212345670000000035644109101990PROV BS AS   Reconquista    00026    Chacabuco    67400200112345671000                                                                                          51124010100001000000000   
2024452494003MOSTAJO                  Jorge Alberto       M124452494Reconquista    00026        Chacabuco    67400212345670000000036644103031972PROV BS AS   Reconquista    00026    Chacabuco    67400200112345671000                                                                                          51124010100001000000000   
2036243849803ESCOBAR                  Dionicio Dario      M136243849Reconquista    00026        Chacabuco    67400212345670000000037644112071991PROV BS AS   Reconquista    00026    Chacabuco    67400200112345671000                                                                                          51124010100001000000000   
2037759459303VILCHE                   Cesar Nicolas       M137759459Reconquista    00026        Chacabuco    67400212345670000000038644113041993PROV BS AS   Reconquista    00026    Chacabuco    67400200112345671000                                                                                          51124010100001000000000   
2041336177003GONZALEZ                 Facundo Jose Maria  M141336177Reconquista    00026        Chacabuco    67400212345670000000039644103121998PROV BS AS   Reconquista    00026    Chacabuco    67400200112345671000                                                                                          51124010100001000000000   
2033551112403HERRERA                  Gaston Ezequiel     M133551112Reconquista    00026        Chacabuco    67400212345670000000040644131101987PROV BS AS   Reconquista    00026    Chacabuco    67400200112345671000                                                                                          51124010100001000000000   
2029689650103HERRERA                  Leonardo Matias     M129689650Reconquista    00026        Chacabuco    67400212345670000000041644114091982PROV BS AS   Reconquista    00026    Chacabuco    67400200112345671000                                                                                          51124010100001000000000   
2739708987303CEJAS                    Yesica Alejandra    F139708987Reconquista    00026        Chacabuco    67400212345670000000042644109051996PROV BS AS   Reconquista    00026    Chacabuco    67400200112345671000                                                                                          51124010100001000000000   
2044784420703MOSCARELLI               Nicolas Ezequiel    M144784420Reconquista    00026        Chacabuco    67400212345670000000043644111042003PROV BS AS   Reconquista    00026    Chacabuco    67400200112345671000                                                                                          51124010100001000000000   
2039431797803SUAREZ                   Jonathan Tomas      M139431797Reconquista    00026        Chacabuco    67400212345670000000044644127021996PROV BS AS   Reconquista    00026    Chacabuco    67400200112345671000                                                                                          51124010100001000000000   
2034621575603ROLDAN                   Alejandro Jose      M134621575Reconquista    00026        Chacabuco    67400212345670000000045644117061989PROV BS AS   Reconquista    00026    Chacabuco    67400200112345671000                                                                                          51124010100001000000000   
2036324256203QUIROZ                   Carlos Daniel       M136324256Reconquista    00026        Chacabuco    67400212345670000000046644103021991PROV BS AS   Reconquista    00026    Chacabuco    67400200112345671000                                                                                          51124010100001000000000   
2039099877603FARIAS                   Leonardo Raul       M139099877Reconquista    00026        Chacabuco    67400212345670000000047644108091995PROV BS AS   Reconquista    00026    Chacabuco    67400200112345671000                                                                                          51124010100001000000000   
2344534273403DIAZ                     Ludmila Belen       F144534273Reconquista    00026        Chacabuco    67400212345670000000048644104112002PROV BS AS   Reconquista    00026    Chacabuco    67400200112345671000                                                                                          51124010100001000000000   
2036070000403VELAZQUE                 Emilio Ivan         M136070000Reconquista    00026        Chacabuco    67400212345670000000049644130071991PROV BS AS   Reconquista    00026    Chacabuco    67400200112345671000                                                                                          51124010100001000000000   
2023937587203SOLIS                    Jose Enrique        F123937587Reconquista    00026        Chacabuco    67400212345670000000050644112111974PROV BS AS   Reconquista    00026    Chacabuco    67400200112345671000                                                                                          51124010100001000000000   
2035232467203IBARRA                   Mauro Ezequiel      M135232467Reconquista    00026        Chacabuco    67400212345670000000051644109101990PROV BS AS   Reconquista    00026    Chacabuco    67400200112345671000                                                                                          51124010100001000000000   
2024452494003MOSTAJO                  Jorge Alberto       M124452494Reconquista    00026        Chacabuco    67400212345670000000052644103031972PROV BS AS   Reconquista    00026    Chacabuco    67400200112345671000                                                                                          51124010100001000000000   
2036243849803ESCOBAR                  Dionicio Dario      M136243849Reconquista    00026        Chacabuco    67400212345670000000053644112071991PROV BS AS   Reconquista    00026    Chacabuco    67400200112345671000                                                                                          51124010100001000000000   
2037759459303VILCHE                   Cesar Nicolas       M137759459Reconquista    00026        Chacabuco    67400212345670000000054644113041993PROV BS AS   Reconquista    00026    Chacabuco    67400200112345671000                                                                                          51124010100001000000000   
2041336177003GONZALEZ                 Facundo Jose Maria  M141336177Reconquista    00026        Chacabuco    67400212345670000000055644103121998PROV BS AS   Reconquista    00026    Chacabuco    67400200112345671000                                                                                          51124010100001000000000   
2033551112403HERRERA                  Gaston Ezequiel     M133551112Reconquista    00026        Chacabuco    67400212345670000000056644131101987PROV BS AS   Reconquista    00026    Chacabuco    67400200112345671000                                                                                          51124010100001000000000   
2029689650103HERRERA                  Leonardo Matias     M129689650Reconquista    00026        Chacabuco    67400212345670000000057644114091982PROV BS AS   Reconquista    00026    Chacabuco    67400200112345671000                                                                                          51124010100001000000000   
2739708987303CEJAS                    Yesica Alejandra    F139708987Reconquista    00026        Chacabuco    67400212345670000000058644109051996PROV BS AS   Reconquista    00026    Chacabuco    67400200112345671000                                                                                          51124010100001000000000   
2044784420703MOSCARELLI               Nicolas Ezequiel    M144784420Reconquista    00026        Chacabuco    67400212345670000000059644111042003PROV BS AS   Reconquista    00026    Chacabuco    67400200112345671000                                                                                          51124010100001000000000   
2039431797803SUAREZ                   Jonathan Tomas      M139431797Reconquista    00026        Chacabuco    67400212345670000000060644127021996PROV BS AS   Reconquista    00026    Chacabuco    67400200112345671000                                                                                          51124010100001000000000   
2034621575603ROLDAN                   Alejandro Jose      M134621575Reconquista    00026        Chacabuco    67400212345670000000061644117061989PROV BS AS   Reconquista    00026    Chacabuco    67400200112345671000                                                                                          51124010100001000000000   
2036324256203QUIROZ                   Carlos Daniel       M136324256Reconquista    00026        Chacabuco    67400212345670000000062644103021991PROV BS AS   Reconquista    00026    Chacabuco    67400200112345671000                                                                                          51124010100001000000000   
2039099877603FARIAS                   Leonardo Raul       M139099877Reconquista    00026        Chacabuco    67400212345670000000063644108091995PROV BS AS   Reconquista    00026    Chacabuco    67400200112345671000                                                                                          51124010100001000000000   
2344534273403DIAZ                     Ludmila Belen       F144534273Reconquista    00026        Chacabuco    67400212345670000000064644104112002PROV BS AS   Reconquista    00026    Chacabuco    67400200112345671000                                                                                          51124010100001000000000   
2036070000403VELAZQUE                 Emilio Ivan         M136070000Reconquista    00026        Chacabuco    67400212345670000000065644130071991PROV BS AS   Reconquista    00026    Chacabuco    67400200112345671000                                                                                          51124010100001000000000   
2023937587203SOLIS                    Jose Enrique        F123937587Reconquista    00026        Chacabuco    67400212345670000000066644112111974PROV BS AS   Reconquista    00026    Chacabuco    67400200112345671000                                                                                          51124010100001000000000   
2035232467203IBARRA                   Mauro Ezequiel      M135232467Reconquista    00026        Chacabuco    67400212345670000000067644109101990PROV BS AS   Reconquista    00026    Chacabuco    67400200112345671000                                                                                          51124010100001000000000   
2024452494003MOSTAJO                  Jorge Alberto       M124452494Reconquista    00026        Chacabuco    67400212345670000000068644103031972PROV BS AS   Reconquista    00026    Chacabuco    67400200112345671000                                                                                          51124010100001000000000   
2036243849803ESCOBAR                  Dionicio Dario      M136243849Reconquista    00026        Chacabuco    67400212345670000000069644112071991PROV BS AS   Reconquista    00026    Chacabuco    67400200112345671000                                                                                          51124010100001000000000   
2037759459303VILCHE                   Cesar Nicolas       M137759459Reconquista    00026        Chacabuco    67400212345670000000070644113041993PROV BS AS   Reconquista    00026    Chacabuco    67400200112345671000                                                                                          51124010100001000000000   
2041336177003GONZALEZ                 Facundo Jose Maria  M141336177Reconquista    00026        Chacabuco    67400212345670000000071644103121998PROV BS AS   Reconquista    00026    Chacabuco    67400200112345671000                                                                                          51124010100001000000000   
2033551112403HERRERA                  Gaston Ezequiel     M133551112Reconquista    00026        Chacabuco    67400212345670000000072644131101987PROV BS AS   Reconquista    00026    Chacabuco    67400200112345671000                                                                                          51124010100001000000000   
2029689650103HERRERA                  Leonardo Matias     M129689650Reconquista    00026        Chacabuco    67400212345670000000073644114091982PROV BS AS   Reconquista    00026    Chacabuco    67400200112345671000                                                                                          51124010100001000000000   
2739708987303CEJAS                    Yesica Alejandra    F139708987Reconquista    00026        Chacabuco    67400212345670000000074644109051996PROV BS AS   Reconquista    00026    Chacabuco    67400200112345671000                                                                                          51124010100001000000000   
2044784420703MOSCARELLI               Nicolas Ezequiel    M144784420Reconquista    00026        Chacabuco    67400212345670000000075644111042003PROV BS AS   Reconquista    00026    Chacabuco    67400200112345671000                                                                                          51124010100001000000000   
2039431797803SUAREZ                   Jonathan Tomas      M139431797Reconquista    00026        Chacabuco    67400212345670000000076644127021996PROV BS AS   Reconquista    00026    Chacabuco    67400200112345671000                                                                                          51124010100001000000000   
2034621575603ROLDAN                   Alejandro Jose      M134621575Reconquista    00026        Chacabuco    67400212345670000000077644117061989PROV BS AS   Reconquista    00026    Chacabuco    67400200112345671000                                                                                          51124010100001000000000   
2036324256203QUIROZ                   Carlos Daniel       M136324256Reconquista    00026        Chacabuco    67400212345670000000078644103021991PROV BS AS   Reconquista    00026    Chacabuco    67400200112345671000                                                                                          51124010100001000000000   
2039099877603FARIAS                   Leonardo Raul       M139099877Reconquista    00026        Chacabuco    67400212345670000000079644108091995PROV BS AS   Reconquista    00026    Chacabuco    67400200112345671000                                                                                          51124010100001000000000   
2344534273403DIAZ                     Ludmila Belen       F144534273Reconquista    00026        Chacabuco    67400212345670000000080644104112002PROV BS AS   Reconquista    00026    Chacabuco    67400200112345671000                                                                                          51124010100001000000000   
2036070000403VELAZQUE                 Emilio Ivan         M136070000Reconquista    00026        Chacabuco    67400212345670000000081644130071991PROV BS AS   Reconquista    00026    Chacabuco    67400200112345671000                                                                                          51124010100001000000000   
2023937587203SOLIS                    Jose Enrique        F123937587Reconquista    00026        Chacabuco    67400212345670000000082644112111974PROV BS AS   Reconquista    00026    Chacabuco    67400200112345671000                                                                                          51124010100001000000000   
2035232467203IBARRA                   Mauro Ezequiel      M135232467Reconquista    00026        Chacabuco    67400212345670000000083644109101990PROV BS AS   Reconquista    00026    Chacabuco    67400200112345671000                                                                                          51124010100001000000000   
2024452494003MOSTAJO                  Jorge Alberto       M124452494Reconquista    00026        Chacabuco    67400212345670000000084644103031972PROV BS AS   Reconquista    00026    Chacabuco    67400200112345671000                                                                                          51124010100001000000000   
2036243849803ESCOBAR                  Dionicio Dario      M136243849Reconquista    00026        Chacabuco    67400212345670000000085644112071991PROV BS AS   Reconquista    00026    Chacabuco    67400200112345671000                                                                                          51124010100001000000000   
2037759459303VILCHE                   Cesar Nicolas       M137759459Reconquista    00026        Chacabuco    67400212345670000000086644113041993PROV BS AS   Reconquista    00026    Chacabuco    67400200112345671000                                                                                          51124010100001000000000   
2041336177003GONZALEZ                 Facundo Jose Maria  M141336177Reconquista    00026        Chacabuco    67400212345670000000087644103121998PROV BS AS   Reconquista    00026    Chacabuco    67400200112345671000                                                                                          51124010100001000000000   
2033551112403HERRERA                  Gaston Ezequiel     M133551112Reconquista    00026        Chacabuco    67400212345670000000088644131101987PROV BS AS   Reconquista    00026    Chacabuco    67400200112345671000                                                                                          51124010100001000000000   
2029689650103HERRERA                  Leonardo Matias     M129689650Reconquista    00026        Chacabuco    67400212345670000000089644114091982PROV BS AS   Reconquista    00026    Chacabuco    67400200112345671000                                                                                          51124010100001000000000   
2739708987303CEJAS                    Yesica Alejandra    F139708987Reconquista    00026        Chacabuco    67400212345670000000090644109051996PROV BS AS   Reconquista    00026    Chacabuco    67400200112345671000                                                                                          51124010100001000000000   
2044784420703MOSCARELLI               Nicolas Ezequiel    M144784420Reconquista    00026        Chacabuco    67400212345670000000091644111042003PROV BS AS   Reconquista    00026    Chacabuco    67400200112345671000                                                                                          51124010100001000000000   
2039431797803SUAREZ                   Jonathan Tomas      M139431797Reconquista    00026        Chacabuco    67400212345670000000092644127021996PROV BS AS   Reconquista    00026    Chacabuco    67400200112345671000                                                                                          51124010100001000000000   
2034621575603ROLDAN                   Alejandro Jose      M134621575Reconquista    00026        Chacabuco    67400212345670000000093644117061989PROV BS AS   Reconquista    00026    Chacabuco    67400200112345671000                                                                                          51124010100001000000000   
2036324256203QUIROZ                   Carlos Daniel       M136324256Reconquista    00026        Chacabuco    67400212345670000000094644103021991PROV BS AS   Reconquista    00026    Chacabuco    67400200112345671000                                                                                          51124010100001000000000   
2039099877603FARIAS                   Leonardo Raul       M139099877Reconquista    00026        Chacabuco    67400212345670000000095644108091995PROV BS AS   Reconquista    00026    Chacabuco    67400200112345671000                                                                                          51124010100001000000000   
2344534273403DIAZ                     Ludmila Belen       F144534273Reconquista    00026        Chacabuco    67400212345670000000096644104112002PROV BS AS   Reconquista    00026    Chacabuco    67400200112345671000                                                                                          51124010100001000000000   
2036070000403VELAZQUE                 Emilio Ivan         M136070000Reconquista    00026        Chacabuco    67400212345670000000097644130071991PROV BS AS   Reconquista    00026    Chacabuco    67400200112345671000                                                                                          51124010100001000000000   
2023937587203SOLIS                    Jose Enrique        F123937587Reconquista    00026        Chacabuco    67400212345670000000098644112111974PROV BS AS   Reconquista    00026    Chacabuco    67400200112345671000                                                                                          51124010100001000000000   
2035232467203IBARRA                   Mauro Ezequiel      M135232467Reconquista    00026        Chacabuco    67400212345670000000099644109101990PROV BS AS   Reconquista    00026    Chacabuco    67400200112345671000                                                                                          51124010100001000000000   
2024452494003MOSTAJO                  Jorge Alberto       M124452494Reconquista    00026        Chacabuco    67400212345670000000100644103031972PROV BS AS   Reconquista    00026    Chacabuco    67400200112345671000                                                                                          51124010100001000000000   
2036243849803ESCOBAR                  Dionicio Dario      M136243849Reconquista    00026        Chacabuco    67400212345670000000101644112071991PROV BS AS   Reconquista    00026    Chacabuco    67400200112345671000                                                                                          51124010100001000000000   
2037759459303VILCHE                   Cesar Nicolas       M137759459Reconquista    00026        Chacabuco    67400212345670000000102644113041993PROV BS AS   Reconquista    00026    Chacabuco    67400200112345671000                                                                                          51124010100001000000000   
2041336177003GONZALEZ                 Facundo Jose Maria  M141336177Reconquista    00026        Chacabuco    67400212345670000000103644103121998PROV BS AS   Reconquista    00026    Chacabuco    67400200112345671000                                                                                          51124010100001000000000   
2033551112403HERRERA                  Gaston Ezequiel     M133551112Reconquista    00026        Chacabuco    67400212345670000000104644131101987PROV BS AS   Reconquista    00026    Chacabuco    67400200112345671000                                                                                          51124010100001000000000   
2029689650103HERRERA                  Leonardo Matias     M129689650Reconquista    00026        Chacabuco    67400212345670000000105644114091982PROV BS AS   Reconquista    00026    Chacabuco    67400200112345671000                                                                                          51124010100001000000000   
2739708987303CEJAS                    Yesica Alejandra    F139708987Reconquista    00026        Chacabuco    67400212345670000000106644109051996PROV BS AS   Reconquista    00026    Chacabuco    67400200112345671000                                                                                          51124010100001000000000   
2044784420703MOSCARELLI               Nicolas Ezequiel    M144784420Reconquista    00026        Chacabuco    67400212345670000000107644111042003PROV BS AS   Reconquista    00026    Chacabuco    67400200112345671000                                                                                          51124010100001000000000   
2039431797803SUAREZ                   Jonathan Tomas      M139431797Reconquista    00026        Chacabuco    67400212345670000000108644127021996PROV BS AS   Reconquista    00026    Chacabuco    67400200112345671000                                                                                          51124010100001000000000   
2034621575603ROLDAN                   Alejandro Jose      M134621575Reconquista    00026        Chacabuco    67400212345670000000109644117061989PROV BS AS   Reconquista    00026    Chacabuco    67400200112345671000                                                                                          51124010100001000000000   
2036324256203QUIROZ                   Carlos Daniel       M136324256Reconquista    00026        Chacabuco    67400212345670000000110644103021991PROV BS AS   Reconquista    00026    Chacabuco    67400200112345671000                                                                                          51124010100001000000000   
2039099877603FARIAS                   Leonardo Raul       M139099877Reconquista    00026        Chacabuco    67400212345670000000111644108091995PROV BS AS   Reconquista    00026    Chacabuco    67400200112345671000                                                                                          51124010100001000000000   
2344534273403DIAZ                     Ludmila Belen       F144534273Reconquista    00026        Chacabuco    67400212345670000000112644104112002PROV BS AS   Reconquista    00026    Chacabuco    67400200112345671000                                                                                          51124010100001000000000   
2036070000403VELAZQUE                 Emilio Ivan         M136070000Reconquista    00026        Chacabuco    67400212345670000000113644130071991PROV BS AS   Reconquista    00026    Chacabuco    67400200112345671000                                                                                          51124010100001000000000   
2023937587203SOLIS                    Jose Enrique        F123937587Reconquista    00026        Chacabuco    67400212345670000000114644112111974PROV BS AS   Reconquista    00026    Chacabuco    67400200112345671000                                                                                          51124010100001000000000   
2035232467203IBARRA                   Mauro Ezequiel      M135232467Reconquista    00026        Chacabuco    67400212345670000000115644109101990PROV BS AS   Reconquista    00026    Chacabuco    67400200112345671000                                                                                          51124010100001000000000   
2024452494003MOSTAJO                  Jorge Alberto       M124452494Reconquista    00026        Chacabuco    67400212345670000000116644103031972PROV BS AS   Reconquista    00026    Chacabuco    67400200112345671000                                                                                          51124010100001000000000   
2036243849803ESCOBAR                  Dionicio Dario      M136243849Reconquista    00026        Chacabuco    67400212345670000000117644112071991PROV BS AS   Reconquista    00026    Chacabuco    67400200112345671000                                                                                          51124010100001000000000   
2037759459303VILCHE                   Cesar Nicolas       M137759459Reconquista    00026        Chacabuco    67400212345670000000118644113041993PROV BS AS   Reconquista    00026    Chacabuco    67400200112345671000                                                                                          51124010100001000000000   
2041336177003GONZALEZ                 Facundo Jose Maria  M141336177Reconquista    00026        Chacabuco    67400212345670000000119644103121998PROV BS AS   Reconquista    00026    Chacabuco    67400200112345671000                                                                                          51124010100001000000000   
2033551112403HERRERA                  Gaston Ezequiel     M133551112Reconquista    00026        Chacabuco    67400212345670000000120644131101987PROV BS AS   Reconquista    00026    Chacabuco    67400200112345671000                                                                                          51124010100001000000000   
2029689650103HERRERA                  Leonardo Matias     M129689650Reconquista    00026        Chacabuco    67400212345670000000121644114091982PROV BS AS   Reconquista    00026    Chacabuco    67400200112345671000                                                                                          51124010100001000000000   
2739708987303CEJAS                    Yesica Alejandra    F139708987Reconquista    00026        Chacabuco    67400212345670000000122644109051996PROV BS AS   Reconquista    00026    Chacabuco    67400200112345671000                                                                                          51124010100001000000000   
2044784420703MOSCARELLI               Nicolas Ezequiel    M144784420Reconquista    00026        Chacabuco    67400212345670000000123644111042003PROV BS AS   Reconquista    00026    Chacabuco    67400200112345671000                                                                                          51124010100001000000000   
2039431797803SUAREZ                   Jonathan Tomas      M139431797Reconquista    00026        Chacabuco    67400212345670000000124644127021996PROV BS AS   Reconquista    00026    Chacabuco    67400200112345671000                                                                                          51124010100001000000000   
2034621575603ROLDAN                   Alejandro Jose      M134621575Reconquista    00026        Chacabuco    67400212345670000000125644117061989PROV BS AS   Reconquista    00026    Chacabuco    67400200112345671000                                                                                          51124010100001000000000   
2036324256203QUIROZ                   Carlos Daniel       M136324256Reconquista    00026        Chacabuco    67400212345670000000126644103021991PROV BS AS   Reconquista    00026    Chacabuco    67400200112345671000                                                                                          51124010100001000000000   
2039099877603FARIAS                   Leonardo Raul       M139099877Reconquista    00026        Chacabuco    67400212345670000000127644108091995PROV BS AS   Reconquista    00026    Chacabuco    67400200112345671000                                                                                          51124010100001000000000   
2344534273403DIAZ                     Ludmila Belen       F144534273Reconquista    00026        Chacabuco    67400212345670000000128644104112002PROV BS AS   Reconquista    00026    Chacabuco    67400200112345671000                                                                                          51124010100001000000000   
2036070000403VELAZQUE                 Emilio Ivan         M136070000Reconquista    00026        Chacabuco    67400212345670000000129644130071991PROV BS AS   Reconquista    00026    Chacabuco    67400200112345671000                                                                                          51124010100001000000000   
2023937587203SOLIS                    Jose Enrique        F123937587Reconquista    00026        Chacabuco    67400212345670000000130644112111974PROV BS AS   Reconquista    00026    Chacabuco    67400200112345671000                                                                                          51124010100001000000000   
2035232467203IBARRA                   Mauro Ezequiel      M135232467Reconquista    00026        Chacabuco    67400212345670000000131644109101990PROV BS AS   Reconquista    00026    Chacabuco    67400200112345671000                                                                                          51124010100001000000000   
2024452494003MOSTAJO                  Jorge Alberto       M124452494Reconquista    00026        Chacabuco    67400212345670000000132644103031972PROV BS AS   Reconquista    00026    Chacabuco    67400200112345671000                                                                                          51124010100001000000000   
2036243849803ESCOBAR                  Dionicio Dario      M136243849Reconquista    00026        Chacabuco    67400212345670000000133644112071991PROV BS AS   Reconquista    00026    Chacabuco    67400200112345671000                                                                                          51124010100001000000000   
2037759459303VILCHE                   Cesar Nicolas       M137759459Reconquista    00026        Chacabuco    67400212345670000000134644113041993PROV BS AS   Reconquista    00026    Chacabuco    67400200112345671000                                                                                          51124010100001000000000   
2041336177003GONZALEZ                 Facundo Jose Maria  M141336177Reconquista    00026        Chacabuco    67400212345670000000135644103121998PROV BS AS   Reconquista    00026    Chacabuco    67400200112345671000                                                                                          51124010100001000000000   
2033551112403HERRERA                  Gaston Ezequiel     M133551112Reconquista    00026        Chacabuco    67400212345670000000136644131101987PROV BS AS   Reconquista    00026    Chacabuco    67400200112345671000                                                                                          51124010100001000000000   
2029689650103HERRERA                  Leonardo Matias     M129689650Reconquista    00026        Chacabuco    67400212345670000000137644114091982PROV BS AS   Reconquista    00026    Chacabuco    67400200112345671000                                                                                          51124010100001000000000   
2739708987303CEJAS                    Yesica Alejandra    F139708987Reconquista    00026        Chacabuco    67400212345670000000138644109051996PROV BS AS   Reconquista    00026    Chacabuco    67400200112345671000                                                                                          51124010100001000000000   
2044784420703MOSCARELLI               Nicolas Ezequiel    M144784420Reconquista    00026        Chacabuco    67400212345670000000139644111042003PROV BS AS   Reconquista    00026    Chacabuco    67400200112345671000                                                                                          51124010100001000000000   
2039431797803SUAREZ                   Jonathan Tomas      M139431797Reconquista    00026        Chacabuco    67400212345670000000140644127021996PROV BS AS   Reconquista    00026    Chacabuco    67400200112345671000                                                                                          51124010100001000000000   
2034621575603ROLDAN                   Alejandro Jose      M134621575Reconquista    00026        Chacabuco    67400212345670000000141644117061989PROV BS AS   Reconquista    00026    Chacabuco    67400200112345671000                                                                                          51124010100001000000000   
2036324256203QUIROZ                   Carlos Daniel       M136324256Reconquista    00026        Chacabuco    67400212345670000000142644103021991PROV BS AS   Reconquista    00026    Chacabuco    67400200112345671000                                                                                          51124010100001000000000   
2039099877603FARIAS                   Leonardo Raul       M139099877Reconquista    00026        Chacabuco    67400212345670000000143644108091995PROV BS AS   Reconquista    00026    Chacabuco    67400200112345671000                                                                                          51124010100001000000000   
2344534273403DIAZ                     Ludmila Belen       F144534273Reconquista    00026        Chacabuco    67400212345670000000144644104112002PROV BS AS   Reconquista    00026    Chacabuco    67400200112345671000                                                                                          51124010100001000000000   
TRNOVED-EMPLE0000014500000014500000                                                                                                                                                                                                                                                                                                       

