1MUN DE CHACABUCOPAGOS               30999083265          2408290735240829016441050485400TR009V770 0
20140030403509855548880016457340000000000000000120348344308                  0
20140030403509855548026018089820000000000000000220181277913                  0
20140030403509857358151009549370000000000000000320371185519                  0
20140030403509857402155018008360000000000000000420420377283                  0
20140030403509857481600008116190000000000000000520404755804                  0
20140030403509857522727014593780000000000000000620463491527                  0
20140030403509857749007008452650000000000000000720438707590                  0
20140030403509856275080007585232300000000000000823353786369                  0
20140030403509856275165004858552100000000000000920282796121                  0
20140030403509856276489004895452300000000000001020390977752                  0
20140030403509856276724004585621400000000000001120323821446                  0
20140030403509856277291004859543300000000000001220386753831                  0
20140030403509856277611045858542100000000000001320205663143                  0
20140030403509856278003000041252000000000000001420219809868                  0
20140030403509856278775000003000000000000000001520370103853                  0
300001701659547055                                                                                 0
