1MUN DE CHACABUCOPAGOS               30999083265SUELDOS   2407132130240713123456789012340TRS0XXXXTR2
22014033270370645158028019146403300000000000000120215026435DIEGO DULAU                             0
22014033270370645249317018089822200000000000000220250866721MAURICIO CESAREO                        0
22014033270370640219177016457340000000000000000320271393114LEONARDO LEONE                          0
22014033270370645045703018089820000000000000000420317444525MARIANO DUARTE                          0
22014033270370645128218009549370000000000000000527255670544VERONICA GUERENDIAIN                    0
22014033270370645249333018008360000000000000000627270552930ROCIO ECHEVERRIA                        0
22014033270370645255295008116190000000000000000720436570512FRANCISCO BASOALTO PIO                  0
22014039900363455030765014593780000000000000000820248447762LUCIANO MINOLI                          0
22014033270370645201080013777600000000000000000920440473696SAMUEL LABORDE                          0
22014033270370645256178010279790000000000000001020400653217MANUEL IZQUIERO                         0
22014033270370645308372014362890000000000000001120242892772MIGUEL ANGEL ANDRES IR                  0
22191012575501255050929010379410000000000000001220168479140FABRICIO CESAR TUCCI                    0
22072045808800003546561014238090000000000000001320168479981ROBERTO ISMAEL BENAVID                  0
22007015523000400322471018353970000000000000001420184541999LEANDRO LAGUZZI                         0
22007015523000400408359018353970000000000000001520200376480RUBEN ALBERTO CAPUTO                    0
22191012575501255107748011708910000000000000001620204435961ALDO DANIEL LERRA                       0
22191012575501255065215018353970000000000000001720204436437MAURO PIAZZA                            0
22191012575501255097405012294350000000000000001820207196844ALEJANDRO PAULE                         0
22007015523000400417777013046460000000000000001920215023177MARCOS FABRICIO AMICON                  0
22191012575501255065338016128860000000000000002020215026796CARLOS RUBEN MOLINA                     0
22191012575501255098262019146400000000000000002120217164584SILVIO DARIO COMBA                      0
22072045808800003533141018089820000000000000002220231189573GUSTAVO ALEJANDRO MAHE                  0
22191012575511250043144006864710000000000000002320254102440DIEGO MATIAS RISSO                      0
22191012575501255105926012759350000000000000002420262092748ROBERTO CARLOS ANGELIN                  0
22191012575501255081109015080370000000000000002520265609504ADRIAN ANIBAL BORDA                     0
22191012575511250012698007164470000000000000002620273856650JORGE DAVID ALVAREZ                     0
22072045808800003527623007665830000000000000002720278219128HECTOR DAVID MOGNI                      0
22191012575501255093489018550540000000000000002820278570410RAMIRO RUBEN PALACIOS                   0
22011032723003270702535014687300000000000000002920278571905MATIAS ANIBAL MONTALBE                  0
22072045808800003555668011644030000000000000003020278572200MATIAS ANIBAL ARBALLO                   0
22191012575501255117978009840670000000000000003120292378743LUIS GABRIEL PAIS                       0
22191012575501255081598016721790000000000000003220295495031DIEGO EZEQUIEL ARRAZUB                  0
22191012575501255093496014844510000000000000003320295495406GASTON HILARIO BONNEFO                  0
22191012575501255097375010564800000000000000003420295495899LUCAS GABRIEL MARGARID                  0
22072045808800003539958019146400000000000000003520295496518PEDRO CHERVERO                          0
22191012575501255093502011600480000000000000003620299132960LUCIANO MARTIN RODRIGU                  0
22191012575501255087701013612240000000000000003720302405043MARIO EZEQUIEL CORONEL                  0
22191012575511250017860015822750000000000000003820302405817EDUARDO FABRICIO SINNO                  0
22072045808800003546219009406480000000000000003920310664325HERNAN ALBERTO MORGARI                  0
22191012575511250035033008937340000000000000004020310664910JORGE OSCAR MATEOS                      0
22191012575501255087688017861820000000000000004120314473354DIEGO RAUL DI SIERVI                    0
22191012575511250012018009263380000000000000004220325850419HERNAN ALBERTO DELGADO                  0
22191012575511250036425007001820000000000000004320345029169GUIDO HERNAN RISSO                      0
22072045808800003544626012133840000000000000004420383642958ENZO EMILIANO AGUIRRE                   0
22191012575511250032386008173710000000000000004520395897544LUIS HERNAN LABORDE                     0
22191012575511250050306012515340000000000000004620400652970CRISTOFER ALBERTO CREG                  0
22011032723003270714983008415250000000000000004720419238865FRANCO URNISA                           0
22072045808800003555835007302440000000000000004820424298051LUCAS AGUSTIN NUIN                      0
22007015523000400428705008234760000000000000004920433056079ARY TALIAN AMICONE                      0
22191012575501255065192012893020000000000000005023215027589PABLO MARCELO QUIROGA                   0
22191012575501255095812018353970000000000000005123268676139RAMIRO UBALDO FOSTER                    0
22191012575501255105322011469860000000000000005223268676929SEBASTIAN ALFREDO ANDR                  0
22072045808800003532742007356300000000000000005323278571629DARDO DAMIAN CALLES                     0
22191012575501255088698010475490000000000000005423299133389JAVIER LOPEZ                            0
22072045808800003544497010519960000000000000005523410254549EZEQUIEL EBET LAGUZZI                   0
22011032723003270718244018089820000000000000005624242893588FERNANDO STUER                          0
22191012575501255093083008965960000000000000005727168478688LUCIA ZARAUZA                           0
22072045808800003514159017056050000000000000005827241046163MARIA MARCELA GOMEZ                     0
22191012575501255114801018038950000000000000005927276043108MARIELA LILIAN POTES                    0
22191012575511250036111010964460000000000000006027280523815JIMENA CRUZ                             0
22007015523000400408275009019060000000000000006127342249979DAIANA PAULA GIULIANO                   0
22191012575511250038247011365100000000000000006227383641417YAMILA LODI                             0
22007015523000400422939006658710000000000000006327399793489ALEJANDRA DI TOTTO GAE                  0
22191012575511250064705010287810000000000000006420426857910MARTIN ETCHELET                         0
22191012575511250061508012826700000000000000006520444147009BRUNO SILVA                             0
22014033270370645158028019146403300000000000006620215026435DIEGO DULAU                             0
22014033270370645249317018089822200000000000006720250866721MAURICIO CESAREO                        0
22014033270370640219177016457340000000000000006820271393114LEONARDO LEONE                          0
22014033270370645045703018089820000000000000006920317444525MARIANO DUARTE                          0
22014033270370645128218009549370000000000000007027255670544VERONICA GUERENDIAIN                    0
22014033270370645249333018008360000000000000007127270552930ROCIO ECHEVERRIA                        0
22014033270370645255295008116190000000000000007220436570512FRANCISCO BASOALTO PIO                  0
22014039900363455030765014593780000000000000007320248447762LUCIANO MINOLI                          0
22014033270370645201080013777600000000000000007420440473696SAMUEL LABORDE                          0
22014033270370645256178010279790000000000000007520400653217MANUEL IZQUIERO                         0
22014033270370645308372014362890000000000000007620242892772MIGUEL ANGEL ANDRES IR                  0
22191012575501255050929010379410000000000000007720168479140FABRICIO CESAR TUCCI                    0
22072045808800003546561014238090000000000000007820168479981ROBERTO ISMAEL BENAVID                  0
22007015523000400322471018353970000000000000007920184541999LEANDRO LAGUZZI                         0
22007015523000400408359018353970000000000000008020200376480RUBEN ALBERTO CAPUTO                    0
22191012575501255107748011708910000000000000008120204435961ALDO DANIEL LERRA                       0
22191012575501255065215018353970000000000000008220204436437MAURO PIAZZA                            0
22191012575501255097405012294350000000000000008320207196844ALEJANDRO PAULE                         0
22007015523000400417777013046460000000000000008420215023177MARCOS FABRICIO AMICON                  0
22191012575501255065338016128860000000000000008520215026796CARLOS RUBEN MOLINA                     0
22191012575501255098262019146400000000000000008620217164584SILVIO DARIO COMBA                      0
22072045808800003533141018089820000000000000008720231189573GUSTAVO ALEJANDRO MAHE                  0
22191012575511250043144006864710000000000000008820254102440DIEGO MATIAS RISSO                      0
22191012575501255105926012759350000000000000008920262092748ROBERTO CARLOS ANGELIN                  0
22191012575501255081109015080370000000000000009020265609504ADRIAN ANIBAL BORDA                     0
22191012575511250012698007164470000000000000009120273856650JORGE DAVID ALVAREZ                     0
22072045808800003527623007665830000000000000009220278219128HECTOR DAVID MOGNI                      0
22191012575501255093489018550540000000000000009320278570410RAMIRO RUBEN PALACIOS                   0
22011032723003270702535014687300000000000000009420278571905MATIAS ANIBAL MONTALBE                  0
22072045808800003555668011644030000000000000009520278572200MATIAS ANIBAL ARBALLO                   0
22191012575501255117978009840670000000000000009620292378743LUIS GABRIEL PAIS                       0
22191012575501255081598016721790000000000000009720295495031DIEGO EZEQUIEL ARRAZUB                  0
22191012575501255093496014844510000000000000009820295495406GASTON HILARIO BONNEFO                  0
22191012575501255097375010564800000000000000009920295495899LUCAS GABRIEL MARGARID                  0
22072045808800003539958019146400000000000000010020295496518PEDRO CHERVERO                          0
22191012575501255093502011600480000000000000010120299132960LUCIANO MARTIN RODRIGU                  0
22191012575501255087701013612240000000000000010220302405043MARIO EZEQUIEL CORONEL                  0
22191012575511250017860015822750000000000000010320302405817EDUARDO FABRICIO SINNO                  0
22072045808800003546219009406480000000000000010420310664325HERNAN ALBERTO MORGARI                  0
22191012575511250035033008937340000000000000010520310664910JORGE OSCAR MATEOS                      0
22191012575501255087688017861820000000000000010620314473354DIEGO RAUL DI SIERVI                    0
22191012575511250012018009263380000000000000010720325850419HERNAN ALBERTO DELGADO                  0
22191012575511250036425007001820000000000000010820345029169GUIDO HERNAN RISSO                      0
22072045808800003544626012133840000000000000010920383642958ENZO EMILIANO AGUIRRE                   0
22191012575511250032386008173710000000000000011020395897544LUIS HERNAN LABORDE                     0
22191012575511250050306012515340000000000000011120400652970CRISTOFER ALBERTO CREG                  0
22011032723003270714983008415250000000000000011220419238865FRANCO URNISA                           0
22072045808800003555835007302440000000000000011320424298051LUCAS AGUSTIN NUIN                      0
22007015523000400428705008234760000000000000011420433056079ARY TALIAN AMICONE                      0
22191012575501255065192012893020000000000000011523215027589PABLO MARCELO QUIROGA                   0
22191012575501255095812018353970000000000000011623268676139RAMIRO UBALDO FOSTER                    0
22191012575501255105322011469860000000000000011723268676929SEBASTIAN ALFREDO ANDR                  0
22072045808800003532742007356300000000000000011823278571629DARDO DAMIAN CALLES                     0
22191012575501255088698010475490000000000000011923299133389JAVIER LOPEZ                            0
22072045808800003544497010519960000000000000012023410254549EZEQUIEL EBET LAGUZZI                   0
22011032723003270718244018089820000000000000012124242893588FERNANDO STUER                          0
22191012575501255093083008965960000000000000012227168478688LUCIA ZARAUZA                           0
22072045808800003514159017056050000000000000012327241046163MARIA MARCELA GOMEZ                     0
22191012575501255114801018038950000000000000012427276043108MARIELA LILIAN POTES                    0
22191012575511250036111010964460000000000000012527280523815JIMENA CRUZ                             0
22007015523000400408275009019060000000000000012627342249979DAIANA PAULA GIULIANO                   0
22191012575511250038247011365100000000000000012727383641417YAMILA LODI                             0
22007015523000400422939006658710000000000000012827399793489ALEJANDRA DI TOTTO GAE                  0
22191012575511250064705010287810000000000000012920426857910MARTIN ETCHELET                         0
22191012575511250061508012826700000000000000013020444147009BRUNO SILVA                             0
22014033270370645158028019146403300000000000013120215026435DIEGO DULAU                             0
22014033270370645249317018089822200000000000013220250866721MAURICIO CESAREO                        0
22014033270370640219177016457340000000000000013320271393114LEONARDO LEONE                          0
22014033270370645045703018089820000000000000013420317444525MARIANO DUARTE                          0
22014033270370645128218009549370000000000000013527255670544VERONICA GUERENDIAIN                    0
22014033270370645249333018008360000000000000013627270552930ROCIO ECHEVERRIA                        0
22014033270370645255295008116190000000000000013720436570512FRANCISCO BASOALTO PIO                  0
22014039900363455030765014593780000000000000013820248447762LUCIANO MINOLI                          0
22014033270370645201080013777600000000000000013920440473696SAMUEL LABORDE                          0
22014033270370645256178010279790000000000000014020400653217MANUEL IZQUIERO                         0
22014033270370645308372014362890000000000000014120242892772MIGUEL ANGEL ANDRES IR                  0
22191012575501255050929010379410000000000000014220168479140FABRICIO CESAR TUCCI                    0
22072045808800003546561014238090000000000000014320168479981ROBERTO ISMAEL BENAVID                  0
22007015523000400322471018353970000000000000014420184541999LEANDRO LAGUZZI                         0
22007015523000400408359018353970000000000000014520200376480RUBEN ALBERTO CAPUTO                    0
22191012575501255107748011708910000000000000014620204435961ALDO DANIEL LERRA                       0
22191012575501255065215018353970000000000000014720204436437MAURO PIAZZA                            0
22191012575501255097405012294350000000000000014820207196844ALEJANDRO PAULE                         0
22007015523000400417777013046460000000000000014920215023177MARCOS FABRICIO AMICON                  0
22191012575501255065338016128860000000000000015020215026796CARLOS RUBEN MOLINA                     0
22191012575501255098262019146400000000000000015120217164584SILVIO DARIO COMBA                      0
22072045808800003533141018089820000000000000015220231189573GUSTAVO ALEJANDRO MAHE                  0
22191012575511250043144006864710000000000000015320254102440DIEGO MATIAS RISSO                      0
22191012575501255105926012759350000000000000015420262092748ROBERTO CARLOS ANGELIN                  0
22191012575501255081109015080370000000000000015520265609504ADRIAN ANIBAL BORDA                     0
22191012575511250012698007164470000000000000015620273856650JORGE DAVID ALVAREZ                     0
22072045808800003527623007665830000000000000015720278219128HECTOR DAVID MOGNI                      0
22191012575501255093489018550540000000000000015820278570410RAMIRO RUBEN PALACIOS                   0
22011032723003270702535014687300000000000000015920278571905MATIAS ANIBAL MONTALBE                  0
22072045808800003555668011644030000000000000016020278572200MATIAS ANIBAL ARBALLO                   0
22191012575501255117978009840670000000000000016120292378743LUIS GABRIEL PAIS                       0
22191012575501255081598016721790000000000000016220295495031DIEGO EZEQUIEL ARRAZUB                  0
22191012575501255093496014844510000000000000016320295495406GASTON HILARIO BONNEFO                  0
22191012575501255097375010564800000000000000016420295495899LUCAS GABRIEL MARGARID                  0
22072045808800003539958019146400000000000000016520295496518PEDRO CHERVERO                          0
22191012575501255093502011600480000000000000016620299132960LUCIANO MARTIN RODRIGU                  0
22191012575501255087701013612240000000000000016720302405043MARIO EZEQUIEL CORONEL                  0
22191012575511250017860015822750000000000000016820302405817EDUARDO FABRICIO SINNO                  0
22072045808800003546219009406480000000000000016920310664325HERNAN ALBERTO MORGARI                  0
22191012575511250035033008937340000000000000017020310664910JORGE OSCAR MATEOS                      0
22191012575501255087688017861820000000000000017120314473354DIEGO RAUL DI SIERVI                    0
22191012575511250012018009263380000000000000017220325850419HERNAN ALBERTO DELGADO                  0
22191012575511250036425007001820000000000000017320345029169GUIDO HERNAN RISSO                      0
22072045808800003544626012133840000000000000017420383642958ENZO EMILIANO AGUIRRE                   0
22191012575511250032386008173710000000000000017520395897544LUIS HERNAN LABORDE                     0
22191012575511250050306012515340000000000000017620400652970CRISTOFER ALBERTO CREG                  0
22011032723003270714983008415250000000000000017720419238865FRANCO URNISA                           0
22072045808800003555835007302440000000000000017820424298051LUCAS AGUSTIN NUIN                      0
22007015523000400428705008234760000000000000017920433056079ARY TALIAN AMICONE                      0
22191012575501255065192012893020000000000000018023215027589PABLO MARCELO QUIROGA                   0
22191012575501255095812018353970000000000000018123268676139RAMIRO UBALDO FOSTER                    0
22191012575501255105322011469860000000000000018223268676929SEBASTIAN ALFREDO ANDR                  0
22072045808800003532742007356300000000000000018323278571629DARDO DAMIAN CALLES                     0
22191012575501255088698010475490000000000000018423299133389JAVIER LOPEZ                            0
22072045808800003544497010519960000000000000018523410254549EZEQUIEL EBET LAGUZZI                   0
22011032723003270718244018089820000000000000018624242893588FERNANDO STUER                          0
22191012575501255093083008965960000000000000018727168478688LUCIA ZARAUZA                           0
22072045808800003514159017056050000000000000018827241046163MARIA MARCELA GOMEZ                     0
22191012575501255114801018038950000000000000018927276043108MARIELA LILIAN POTES                    0
22191012575511250036111010964460000000000000019027280523815JIMENA CRUZ                             0
22007015523000400408275009019060000000000000019127342249979DAIANA PAULA GIULIANO                   0
22191012575511250038247011365100000000000000019227383641417YAMILA LODI                             0
22007015523000400422939006658710000000000000019327399793489ALEJANDRA DI TOTTO GAE                  0
22191012575511250064705010287810000000000000019420426857910MARTIN ETCHELET                         0
22191012575511250061508012826700000000000000019520444147009BRUNO SILVA                             0
22014033270370645158028019146403300000000000019620215026435DIEGO DULAU                             0
22014033270370645249317018089822200000000000019720250866721MAURICIO CESAREO                        0
22014033270370640219177016457340000000000000019820271393114LEONARDO LEONE                          0
22014033270370645045703018089820000000000000019920317444525MARIANO DUARTE                          0
22014033270370645128218009549370000000000000020027255670544VERONICA GUERENDIAIN                    0
22014033270370645249333018008360000000000000020127270552930ROCIO ECHEVERRIA                        0
22014033270370645255295008116190000000000000020220436570512FRANCISCO BASOALTO PIO                  0
22014039900363455030765014593780000000000000020320248447762LUCIANO MINOLI                          0
22014033270370645201080013777600000000000000020420440473696SAMUEL LABORDE                          0
22014033270370645256178010279790000000000000020520400653217MANUEL IZQUIERO                         0
22014033270370645308372014362890000000000000020620242892772MIGUEL ANGEL ANDRES IR                  0
22191012575501255050929010379410000000000000020720168479140FABRICIO CESAR TUCCI                    0
22072045808800003546561014238090000000000000020820168479981ROBERTO ISMAEL BENAVID                  0
22007015523000400322471018353970000000000000020920184541999LEANDRO LAGUZZI                         0
22007015523000400408359018353970000000000000021020200376480RUBEN ALBERTO CAPUTO                    0
22191012575501255107748011708910000000000000021120204435961ALDO DANIEL LERRA                       0
22191012575501255065215018353970000000000000021220204436437MAURO PIAZZA                            0
22191012575501255097405012294350000000000000021320207196844ALEJANDRO PAULE                         0
22007015523000400417777013046460000000000000021420215023177MARCOS FABRICIO AMICON                  0
22191012575501255065338016128860000000000000021520215026796CARLOS RUBEN MOLINA                     0
22191012575501255098262019146400000000000000021620217164584SILVIO DARIO COMBA                      0
22072045808800003533141018089820000000000000021720231189573GUSTAVO ALEJANDRO MAHE                  0
22191012575511250043144006864710000000000000021820254102440DIEGO MATIAS RISSO                      0
22191012575501255105926012759350000000000000021920262092748ROBERTO CARLOS ANGELIN                  0
22191012575501255081109015080370000000000000022020265609504ADRIAN ANIBAL BORDA                     0
22191012575511250012698007164470000000000000022120273856650JORGE DAVID ALVAREZ                     0
22072045808800003527623007665830000000000000022220278219128HECTOR DAVID MOGNI                      0
22191012575501255093489018550540000000000000022320278570410RAMIRO RUBEN PALACIOS                   0
22011032723003270702535014687300000000000000022420278571905MATIAS ANIBAL MONTALBE                  0
22072045808800003555668011644030000000000000022520278572200MATIAS ANIBAL ARBALLO                   0
22191012575501255117978009840670000000000000022620292378743LUIS GABRIEL PAIS                       0
22191012575501255081598016721790000000000000022720295495031DIEGO EZEQUIEL ARRAZUB                  0
22191012575501255093496014844510000000000000022820295495406GASTON HILARIO BONNEFO                  0
22191012575501255097375010564800000000000000022920295495899LUCAS GABRIEL MARGARID                  0
22072045808800003539958019146400000000000000023020295496518PEDRO CHERVERO                          0
22191012575501255093502011600480000000000000023120299132960LUCIANO MARTIN RODRIGU                  0
22191012575501255087701013612240000000000000023220302405043MARIO EZEQUIEL CORONEL                  0
22191012575511250017860015822750000000000000023320302405817EDUARDO FABRICIO SINNO                  0
22072045808800003546219009406480000000000000023420310664325HERNAN ALBERTO MORGARI                  0
22191012575511250035033008937340000000000000023520310664910JORGE OSCAR MATEOS                      0
22191012575501255087688017861820000000000000023620314473354DIEGO RAUL DI SIERVI                    0
22191012575511250012018009263380000000000000023720325850419HERNAN ALBERTO DELGADO                  0
22191012575511250036425007001820000000000000023820345029169GUIDO HERNAN RISSO                      0
22072045808800003544626012133840000000000000023920383642958ENZO EMILIANO AGUIRRE                   0
22191012575511250032386008173710000000000000024020395897544LUIS HERNAN LABORDE                     0
22191012575511250050306012515340000000000000024120400652970CRISTOFER ALBERTO CREG                  0
22011032723003270714983008415250000000000000024220419238865FRANCO URNISA                           0
22072045808800003555835007302440000000000000024320424298051LUCAS AGUSTIN NUIN                      0
22007015523000400428705008234760000000000000024420433056079ARY TALIAN AMICONE                      0
22191012575501255065192012893020000000000000024523215027589PABLO MARCELO QUIROGA                   0
22191012575501255095812018353970000000000000024623268676139RAMIRO UBALDO FOSTER                    0
22191012575501255105322011469860000000000000024723268676929SEBASTIAN ALFREDO ANDR                  0
22072045808800003532742007356300000000000000024823278571629DARDO DAMIAN CALLES                     0
22191012575501255088698010475490000000000000024923299133389JAVIER LOPEZ                            0
22072045808800003544497010519960000000000000025023410254549EZEQUIEL EBET LAGUZZI                   0
22011032723003270718244018089820000000000000025124242893588FERNANDO STUER                          0
22191012575501255093083008965960000000000000025227168478688LUCIA ZARAUZA                           0
22072045808800003514159017056050000000000000025327241046163MARIA MARCELA GOMEZ                     0
22191012575501255114801018038950000000000000025427276043108MARIELA LILIAN POTES                    0
22191012575511250036111010964460000000000000025527280523815JIMENA CRUZ                             0
22007015523000400408275009019060000000000000025627342249979DAIANA PAULA GIULIANO                   0
22191012575511250038247011365100000000000000025727383641417YAMILA LODI                             0
22007015523000400422939006658710000000000000025827399793489ALEJANDRA DI TOTTO GAE                  0
22191012575511250064705010287810000000000000025920426857910MARTIN ETCHELET                         0
22191012575511250061508012826700000000000000026020444147009BRUNO SILVA                             0
22014033270370645158028019146403300000000000026120215026435DIEGO DULAU                             0
22014033270370645249317018089822200000000000026220250866721MAURICIO CESAREO                        0
22014033270370640219177016457340000000000000026320271393114LEONARDO LEONE                          0
22014033270370645045703018089820000000000000026420317444525MARIANO DUARTE                          0
22014033270370645128218009549370000000000000026527255670544VERONICA GUERENDIAIN                    0
22014033270370645249333018008360000000000000026627270552930ROCIO ECHEVERRIA                        0
22014033270370645255295008116190000000000000026720436570512FRANCISCO BASOALTO PIO                  0
22014039900363455030765014593780000000000000026820248447762LUCIANO MINOLI                          0
22014033270370645201080013777600000000000000026920440473696SAMUEL LABORDE                          0
22014033270370645256178010279790000000000000027020400653217MANUEL IZQUIERO                         0
22014033270370645308372014362890000000000000027120242892772MIGUEL ANGEL ANDRES IR                  0
22191012575501255050929010379410000000000000027220168479140FABRICIO CESAR TUCCI                    0
22072045808800003546561014238090000000000000027320168479981ROBERTO ISMAEL BENAVID                  0
22007015523000400322471018353970000000000000027420184541999LEANDRO LAGUZZI                         0
22007015523000400408359018353970000000000000027520200376480RUBEN ALBERTO CAPUTO                    0
22191012575501255107748011708910000000000000027620204435961ALDO DANIEL LERRA                       0
22191012575501255065215018353970000000000000027720204436437MAURO PIAZZA                            0
22191012575501255097405012294350000000000000027820207196844ALEJANDRO PAULE                         0
22007015523000400417777013046460000000000000027920215023177MARCOS FABRICIO AMICON                  0
22191012575501255065338016128860000000000000028020215026796CARLOS RUBEN MOLINA                     0
22191012575501255098262019146400000000000000028120217164584SILVIO DARIO COMBA                      0
22072045808800003533141018089820000000000000028220231189573GUSTAVO ALEJANDRO MAHE                  0
22191012575511250043144006864710000000000000028320254102440DIEGO MATIAS RISSO                      0
22191012575501255105926012759350000000000000028420262092748ROBERTO CARLOS ANGELIN                  0
22191012575501255081109015080370000000000000028520265609504ADRIAN ANIBAL BORDA                     0
22191012575511250012698007164470000000000000028620273856650JORGE DAVID ALVAREZ                     0
22072045808800003527623007665830000000000000028720278219128HECTOR DAVID MOGNI                      0
22191012575501255093489018550540000000000000028820278570410RAMIRO RUBEN PALACIOS                   0
22011032723003270702535014687300000000000000028920278571905MATIAS ANIBAL MONTALBE                  0
22072045808800003555668011644030000000000000029020278572200MATIAS ANIBAL ARBALLO                   0
22191012575501255117978009840670000000000000029120292378743LUIS GABRIEL PAIS                       0
22191012575501255081598016721790000000000000029220295495031DIEGO EZEQUIEL ARRAZUB                  0
22191012575501255093496014844510000000000000029320295495406GASTON HILARIO BONNEFO                  0
22191012575501255097375010564800000000000000029420295495899LUCAS GABRIEL MARGARID                  0
22072045808800003539958019146400000000000000029520295496518PEDRO CHERVERO                          0
22191012575501255093502011600480000000000000029620299132960LUCIANO MARTIN RODRIGU                  0
22191012575501255087701013612240000000000000029720302405043MARIO EZEQUIEL CORONEL                  0
22191012575511250017860015822750000000000000029820302405817EDUARDO FABRICIO SINNO                  0
22072045808800003546219009406480000000000000029920310664325HERNAN ALBERTO MORGARI                  0
22191012575511250035033008937340000000000000030020310664910JORGE OSCAR MATEOS                      0
22191012575501255087688017861820000000000000030120314473354DIEGO RAUL DI SIERVI                    0
22191012575511250012018009263380000000000000030220325850419HERNAN ALBERTO DELGADO                  0
22191012575511250036425007001820000000000000030320345029169GUIDO HERNAN RISSO                      0
22072045808800003544626012133840000000000000030420383642958ENZO EMILIANO AGUIRRE                   0
22191012575511250032386008173710000000000000030520395897544LUIS HERNAN LABORDE                     0
22191012575511250050306012515340000000000000030620400652970CRISTOFER ALBERTO CREG                  0
22011032723003270714983008415250000000000000030720419238865FRANCO URNISA                           0
22072045808800003555835007302440000000000000030820424298051LUCAS AGUSTIN NUIN                      0
22007015523000400428705008234760000000000000030920433056079ARY TALIAN AMICONE                      0
22191012575501255065192012893020000000000000031023215027589PABLO MARCELO QUIROGA                   0
22191012575501255095812018353970000000000000031123268676139RAMIRO UBALDO FOSTER                    0
22191012575501255105322011469860000000000000031223268676929SEBASTIAN ALFREDO ANDR                  0
22072045808800003532742007356300000000000000031323278571629DARDO DAMIAN CALLES                     0
22191012575501255088698010475490000000000000031423299133389JAVIER LOPEZ                            0
22072045808800003544497010519960000000000000031523410254549EZEQUIEL EBET LAGUZZI                   0
22011032723003270718244018089820000000000000031624242893588FERNANDO STUER                          0
22191012575501255093083008965960000000000000031727168478688LUCIA ZARAUZA                           0
22072045808800003514159017056050000000000000031827241046163MARIA MARCELA GOMEZ                     0
22191012575501255114801018038950000000000000031927276043108MARIELA LILIAN POTES                    0
22191012575511250036111010964460000000000000032027280523815JIMENA CRUZ                             0
22007015523000400408275009019060000000000000032127342249979DAIANA PAULA GIULIANO                   0
22191012575511250038247011365100000000000000032227383641417YAMILA LODI                             0
22007015523000400422939006658710000000000000032327399793489ALEJANDRA DI TOTTO GAE                  0
22191012575511250064705010287810000000000000032420426857910MARTIN ETCHELET                         0
22191012575511250061508012826700000000000000032520444147009BRUNO SILVA                             0
22014033270370645158028019146403300000000000032620215026435DIEGO DULAU                             0
22014033270370645249317018089822200000000000032720250866721MAURICIO CESAREO                        0
22014033270370640219177016457340000000000000032820271393114LEONARDO LEONE                          0
22014033270370645045703018089820000000000000032920317444525MARIANO DUARTE                          0
22014033270370645128218009549370000000000000033027255670544VERONICA GUERENDIAIN                    0
22014033270370645249333018008360000000000000033127270552930ROCIO ECHEVERRIA                        0
22014033270370645255295008116190000000000000033220436570512FRANCISCO BASOALTO PIO                  0
22014039900363455030765014593780000000000000033320248447762LUCIANO MINOLI                          0
22014033270370645201080013777600000000000000033420440473696SAMUEL LABORDE                          0
22014033270370645256178010279790000000000000033520400653217MANUEL IZQUIERO                         0
22014033270370645308372014362890000000000000033620242892772MIGUEL ANGEL ANDRES IR                  0
22191012575501255050929010379410000000000000033720168479140FABRICIO CESAR TUCCI                    0
22072045808800003546561014238090000000000000033820168479981ROBERTO ISMAEL BENAVID                  0
22007015523000400322471018353970000000000000033920184541999LEANDRO LAGUZZI                         0
22007015523000400408359018353970000000000000034020200376480RUBEN ALBERTO CAPUTO                    0
22191012575501255107748011708910000000000000034120204435961ALDO DANIEL LERRA                       0
22191012575501255065215018353970000000000000034220204436437MAURO PIAZZA                            0
22191012575501255097405012294350000000000000034320207196844ALEJANDRO PAULE                         0
22007015523000400417777013046460000000000000034420215023177MARCOS FABRICIO AMICON                  0
22191012575501255065338016128860000000000000034520215026796CARLOS RUBEN MOLINA                     0
22191012575501255098262019146400000000000000034620217164584SILVIO DARIO COMBA                      0
22072045808800003533141018089820000000000000034720231189573GUSTAVO ALEJANDRO MAHE                  0
22191012575511250043144006864710000000000000034820254102440DIEGO MATIAS RISSO                      0
22191012575501255105926012759350000000000000034920262092748ROBERTO CARLOS ANGELIN                  0
22191012575501255081109015080370000000000000035020265609504ADRIAN ANIBAL BORDA                     0
22191012575511250012698007164470000000000000035120273856650JORGE DAVID ALVAREZ                     0
22072045808800003527623007665830000000000000035220278219128HECTOR DAVID MOGNI                      0
22191012575501255093489018550540000000000000035320278570410RAMIRO RUBEN PALACIOS                   0
22011032723003270702535014687300000000000000035420278571905MATIAS ANIBAL MONTALBE                  0
22072045808800003555668011644030000000000000035520278572200MATIAS ANIBAL ARBALLO                   0
22191012575501255117978009840670000000000000035620292378743LUIS GABRIEL PAIS                       0
22191012575501255081598016721790000000000000035720295495031DIEGO EZEQUIEL ARRAZUB                  0
22191012575501255093496014844510000000000000035820295495406GASTON HILARIO BONNEFO                  0
22191012575501255097375010564800000000000000035920295495899LUCAS GABRIEL MARGARID                  0
22072045808800003539958019146400000000000000036020295496518PEDRO CHERVERO                          0
22191012575501255093502011600480000000000000036120299132960LUCIANO MARTIN RODRIGU                  0
22191012575501255087701013612240000000000000036220302405043MARIO EZEQUIEL CORONEL                  0
22191012575511250017860015822750000000000000036320302405817EDUARDO FABRICIO SINNO                  0
22072045808800003546219009406480000000000000036420310664325HERNAN ALBERTO MORGARI                  0
22191012575511250035033008937340000000000000036520310664910JORGE OSCAR MATEOS                      0
22191012575501255087688017861820000000000000036620314473354DIEGO RAUL DI SIERVI                    0
22191012575511250012018009263380000000000000036720325850419HERNAN ALBERTO DELGADO                  0
22191012575511250036425007001820000000000000036820345029169GUIDO HERNAN RISSO                      0
22072045808800003544626012133840000000000000036920383642958ENZO EMILIANO AGUIRRE                   0
22191012575511250032386008173710000000000000037020395897544LUIS HERNAN LABORDE                     0
22191012575511250050306012515340000000000000037120400652970CRISTOFER ALBERTO CREG                  0
22011032723003270714983008415250000000000000037220419238865FRANCO URNISA                           0
22072045808800003555835007302440000000000000037320424298051LUCAS AGUSTIN NUIN                      0
22007015523000400428705008234760000000000000037420433056079ARY TALIAN AMICONE                      0
22191012575501255065192012893020000000000000037523215027589PABLO MARCELO QUIROGA                   0
22191012575501255095812018353970000000000000037623268676139RAMIRO UBALDO FOSTER                    0
22191012575501255105322011469860000000000000037723268676929SEBASTIAN ALFREDO ANDR                  0
22072045808800003532742007356300000000000000037823278571629DARDO DAMIAN CALLES                     0
22191012575501255088698010475490000000000000037923299133389JAVIER LOPEZ                            0
22072045808800003544497010519960000000000000038023410254549EZEQUIEL EBET LAGUZZI                   0
22011032723003270718244018089820000000000000038124242893588FERNANDO STUER                          0
22191012575501255093083008965960000000000000038227168478688LUCIA ZARAUZA                           0
22072045808800003514159017056050000000000000038327241046163MARIA MARCELA GOMEZ                     0
22191012575501255114801018038950000000000000038427276043108MARIELA LILIAN POTES                    0
22191012575511250036111010964460000000000000038527280523815JIMENA CRUZ                             0
22007015523000400408275009019060000000000000038627342249979DAIANA PAULA GIULIANO                   0
22191012575511250038247011365100000000000000038727383641417YAMILA LODI                             0
22007015523000400422939006658710000000000000038827399793489ALEJANDRA DI TOTTO GAE                  0
22191012575511250064705010287810000000000000038920426857910MARTIN ETCHELET                         0
22191012575511250061508012826700000000000000039020444147009BRUNO SILVA                             0
22014033270370645158028019146403300000000000039120215026435DIEGO DULAU                             0
22014033270370645249317018089822200000000000039220250866721MAURICIO CESAREO                        0
22014033270370640219177016457340000000000000039320271393114LEONARDO LEONE                          0
22014033270370645045703018089820000000000000039420317444525MARIANO DUARTE                          0
22014033270370645128218009549370000000000000039527255670544VERONICA GUERENDIAIN                    0
22014033270370645249333018008360000000000000039627270552930ROCIO ECHEVERRIA                        0
22014033270370645255295008116190000000000000039720436570512FRANCISCO BASOALTO PIO                  0
22014039900363455030765014593780000000000000039820248447762LUCIANO MINOLI                          0
22014033270370645201080013777600000000000000039920440473696SAMUEL LABORDE                          0
22014033270370645256178010279790000000000000040020400653217MANUEL IZQUIERO                         0
22014033270370645308372014362890000000000000040120242892772MIGUEL ANGEL ANDRES IR                  0
22191012575501255050929010379410000000000000040220168479140FABRICIO CESAR TUCCI                    0
22072045808800003546561014238090000000000000040320168479981ROBERTO ISMAEL BENAVID                  0
22007015523000400322471018353970000000000000040420184541999LEANDRO LAGUZZI                         0
22007015523000400408359018353970000000000000040520200376480RUBEN ALBERTO CAPUTO                    0
22191012575501255107748011708910000000000000040620204435961ALDO DANIEL LERRA                       0
22191012575501255065215018353970000000000000040720204436437MAURO PIAZZA                            0
22191012575501255097405012294350000000000000040820207196844ALEJANDRO PAULE                         0
22007015523000400417777013046460000000000000040920215023177MARCOS FABRICIO AMICON                  0
22191012575501255065338016128860000000000000041020215026796CARLOS RUBEN MOLINA                     0
22191012575501255098262019146400000000000000041120217164584SILVIO DARIO COMBA                      0
22072045808800003533141018089820000000000000041220231189573GUSTAVO ALEJANDRO MAHE                  0
22191012575511250043144006864710000000000000041320254102440DIEGO MATIAS RISSO                      0
22191012575501255105926012759350000000000000041420262092748ROBERTO CARLOS ANGELIN                  0
22191012575501255081109015080370000000000000041520265609504ADRIAN ANIBAL BORDA                     0
22191012575511250012698007164470000000000000041620273856650JORGE DAVID ALVAREZ                     0
22072045808800003527623007665830000000000000041720278219128HECTOR DAVID MOGNI                      0
22191012575501255093489018550540000000000000041820278570410RAMIRO RUBEN PALACIOS                   0
22011032723003270702535014687300000000000000041920278571905MATIAS ANIBAL MONTALBE                  0
22072045808800003555668011644030000000000000042020278572200MATIAS ANIBAL ARBALLO                   0
22191012575501255117978009840670000000000000042120292378743LUIS GABRIEL PAIS                       0
22191012575501255081598016721790000000000000042220295495031DIEGO EZEQUIEL ARRAZUB                  0
22191012575501255093496014844510000000000000042320295495406GASTON HILARIO BONNEFO                  0
22191012575501255097375010564800000000000000042420295495899LUCAS GABRIEL MARGARID                  0
22072045808800003539958019146400000000000000042520295496518PEDRO CHERVERO                          0
22191012575501255093502011600480000000000000042620299132960LUCIANO MARTIN RODRIGU                  0
22191012575501255087701013612240000000000000042720302405043MARIO EZEQUIEL CORONEL                  0
22191012575511250017860015822750000000000000042820302405817EDUARDO FABRICIO SINNO                  0
22072045808800003546219009406480000000000000042920310664325HERNAN ALBERTO MORGARI                  0
22191012575511250035033008937340000000000000043020310664910JORGE OSCAR MATEOS                      0
22191012575501255087688017861820000000000000043120314473354DIEGO RAUL DI SIERVI                    0
22191012575511250012018009263380000000000000043220325850419HERNAN ALBERTO DELGADO                  0
22191012575511250036425007001820000000000000043320345029169GUIDO HERNAN RISSO                      0
22072045808800003544626012133840000000000000043420383642958ENZO EMILIANO AGUIRRE                   0
22191012575511250032386008173710000000000000043520395897544LUIS HERNAN LABORDE                     0
22191012575511250050306012515340000000000000043620400652970CRISTOFER ALBERTO CREG                  0
22011032723003270714983008415250000000000000043720419238865FRANCO URNISA                           0
22072045808800003555835007302440000000000000043820424298051LUCAS AGUSTIN NUIN                      0
22007015523000400428705008234760000000000000043920433056079ARY TALIAN AMICONE                      0
22191012575501255065192012893020000000000000044023215027589PABLO MARCELO QUIROGA                   0
22191012575501255095812018353970000000000000044123268676139RAMIRO UBALDO FOSTER                    0
22191012575501255105322011469860000000000000044223268676929SEBASTIAN ALFREDO ANDR                  0
22072045808800003532742007356300000000000000044323278571629DARDO DAMIAN CALLES                     0
22191012575501255088698010475490000000000000044423299133389JAVIER LOPEZ                            0
22072045808800003544497010519960000000000000044523410254549EZEQUIEL EBET LAGUZZI                   0
22011032723003270718244018089820000000000000044624242893588FERNANDO STUER                          0
22191012575501255093083008965960000000000000044727168478688LUCIA ZARAUZA                           0
22072045808800003514159017056050000000000000044827241046163MARIA MARCELA GOMEZ                     0
22191012575501255114801018038950000000000000044927276043108MARIELA LILIAN POTES                    0
22191012575511250036111010964460000000000000045027280523815JIMENA CRUZ                             0
22007015523000400408275009019060000000000000045127342249979DAIANA PAULA GIULIANO                   0
22191012575511250038247011365100000000000000045227383641417YAMILA LODI                             0
22007015523000400422939006658710000000000000045327399793489ALEJANDRA DI TOTTO GAE                  0
22191012575511250064705010287810000000000000045420426857910MARTIN ETCHELET                         0
22191012575511250061508012826700000000000000045520444147009BRUNO SILVA                             0
22014033270370645158028019146403300000000000045620215026435DIEGO DULAU                             0
22014033270370645249317018089822200000000000045720250866721MAURICIO CESAREO                        0
22014033270370640219177016457340000000000000045820271393114LEONARDO LEONE                          0
22014033270370645045703018089820000000000000045920317444525MARIANO DUARTE                          0
22014033270370645128218009549370000000000000046027255670544VERONICA GUERENDIAIN                    0
22014033270370645249333018008360000000000000046127270552930ROCIO ECHEVERRIA                        0
22014033270370645255295008116190000000000000046220436570512FRANCISCO BASOALTO PIO                  0
22014039900363455030765014593780000000000000046320248447762LUCIANO MINOLI                          0
22014033270370645201080013777600000000000000046420440473696SAMUEL LABORDE                          0
22014033270370645256178010279790000000000000046520400653217MANUEL IZQUIERO                         0
22014033270370645308372014362890000000000000046620242892772MIGUEL ANGEL ANDRES IR                  0
22191012575501255050929010379410000000000000046720168479140FABRICIO CESAR TUCCI                    0
22072045808800003546561014238090000000000000046820168479981ROBERTO ISMAEL BENAVID                  0
22007015523000400322471018353970000000000000046920184541999LEANDRO LAGUZZI                         0
22007015523000400408359018353970000000000000047020200376480RUBEN ALBERTO CAPUTO                    0
22191012575501255107748011708910000000000000047120204435961ALDO DANIEL LERRA                       0
22191012575501255065215018353970000000000000047220204436437MAURO PIAZZA                            0
22191012575501255097405012294350000000000000047320207196844ALEJANDRO PAULE                         0
22007015523000400417777013046460000000000000047420215023177MARCOS FABRICIO AMICON                  0
22191012575501255065338016128860000000000000047520215026796CARLOS RUBEN MOLINA                     0
22191012575501255098262019146400000000000000047620217164584SILVIO DARIO COMBA                      0
22072045808800003533141018089820000000000000047720231189573GUSTAVO ALEJANDRO MAHE                  0
22191012575511250043144006864710000000000000047820254102440DIEGO MATIAS RISSO                      0
22191012575501255105926012759350000000000000047920262092748ROBERTO CARLOS ANGELIN                  0
22191012575501255081109015080370000000000000048020265609504ADRIAN ANIBAL BORDA                     0
22191012575511250012698007164470000000000000048120273856650JORGE DAVID ALVAREZ                     0
22072045808800003527623007665830000000000000048220278219128HECTOR DAVID MOGNI                      0
22191012575501255093489018550540000000000000048320278570410RAMIRO RUBEN PALACIOS                   0
22011032723003270702535014687300000000000000048420278571905MATIAS ANIBAL MONTALBE                  0
22072045808800003555668011644030000000000000048520278572200MATIAS ANIBAL ARBALLO                   0
22191012575501255117978009840670000000000000048620292378743LUIS GABRIEL PAIS                       0
22191012575501255081598016721790000000000000048720295495031DIEGO EZEQUIEL ARRAZUB                  0
22191012575501255093496014844510000000000000048820295495406GASTON HILARIO BONNEFO                  0
22191012575501255097375010564800000000000000048920295495899LUCAS GABRIEL MARGARID                  0
22072045808800003539958019146400000000000000049020295496518PEDRO CHERVERO                          0
22191012575501255093502011600480000000000000049120299132960LUCIANO MARTIN RODRIGU                  0
22191012575501255087701013612240000000000000049220302405043MARIO EZEQUIEL CORONEL                  0
22191012575511250017860015822750000000000000049320302405817EDUARDO FABRICIO SINNO                  0
22072045808800003546219009406480000000000000049420310664325HERNAN ALBERTO MORGARI                  0
3000496000064316048040                                                                             0
