1MUN DE CHACABUCOPAGOS               30999083265          2409020510240902123456789012340TRS0XXXX0 0
20290000100000000058382000090000000000000000000120302171344                  0
20110599520000001235579000080000000000000000000223291110959                  0
20140030403509855548880016457340000000000000000320348344308                  0
20140030403509855548026018089820000000000000000420181277913                  0
20140030403509857358151009549370000000000000000520371185519                  0
20140030403509857402155018008360000000000000000620420377283                  0
20140030403509857481600008116190000000000000000720404755804                  0
20140030403509857522727014593780000000000000000820463491527                  0
20140030403509857749007008452650000000000000000920438707590                  0
20140030403509856275080007585232300000000000001023353786369                  0
20140030403509856275165004858552100000000000001120282796121                  0
20140030403509856276489004895452300000000000001220390977752                  0
20140030403509856276724004585621400000000000001320323821446                  0
20140030403509856277291004859543300000000000001420386753831                  0
20140030403509856277611045858542100000000000001520205663143                  0
20140030403509856278003000041252000000000000001620219809868                  0
20140030403509856278775000003000000000000000001720370103853                  0
300001901661247055                                                                                 0
