1MUN DE CHACABUCO    Discrecionalidad30999083265   SUELDOS2407060232240706123456789012340TRS0XXXX0 0
202900001000000000583820000900000               20302171344        Juarez, Martin                  0
201105995200000012355790000800000               23291110959       Fernandez, Luis                  0
300000400001700000                                                                                 0
